:100000000C9434000C9451000C9451000C94510049
:100010000C9451000C9451000C9451000C9451001C
:100020000C9451000C9451000C946D000C945100F0
:100030000C9451000C9451000C9451000C945100FC
:100040000C9451000C9451000C9451000C945100EC
:100050000C9451000C9451000C9451000C945100DC
:100060000C9451000C94510011241FBECFEFD8E026
:10007000DEBFCDBF11E0A0E0B1E0EEE9FAE002C0E2
:1000800005900D92A23CB107D9F721E0A2ECB1E0B6
:1000900001C01D92AA3CB207E1F70E949D000C949A
:1000A0004D050C9400002091840030918500E4E817
:1000B000F0E080819181821B930B80389E43C8F3CE
:1000C0000895CF93DF93009729F0EC010E9453002D
:1000D0002197E1F7DF91CF9108951F920F920FB60C
:1000E0000F9211242F933F938F939F93B59BFECF35
:1000F00080918600909187009093C3018093C20104
:1001000080E286BBB59BFECF8091860090918700F0
:100110002091C2013091C301821B930B9093C301C4
:100120008093C20180E286BB9F918F913F912F9176
:100130000F900FBE0F901F90189584EF91E00E94D2
:1001400061000E9410018EE091E09F938F930E94C6
:100150003F0283E191E09F938F938CE191E09F9325
:100160008F9388E291E09F938F930E943F02E0E893
:10017000F0E080811082E1E8F0E08081816480839A
:10018000B59884B1876084B987B187B988B188632D
:1001900088B98AB18C618AB98BB18C618BB985B110
:1001A000866085B988EC90E00E9461008BB1837E07
:1001B0008BB985B1897F85B989E991E00E945502A3
:1001C00082EB91E09F938F930E943F0278948DB7CA
:1001D0009EB70A960FB6F8949EBF0FBE8DBFC7EBB1
:1001E000D1E06091C2017091C30180E090E00E9473
:1001F000B1019B01AC0160E074E284E79BE40E94E2
:100200003F019F938F937F936F93DF93CF930E94D0
:100210003F020F900F900F900F900F900F90E1CF33
:1002200080E091E09093C7018093C601519A509865
:100230001092C50083E38093C400E1ECF0E080817C
:100240008860808380818061808386E08093C200A3
:100250000895E0ECF0E0908195FFFDCF8093C6001B
:100260000895CF93C82F8A3019F48DE00E94290198
:100270008C2F0E94290180E090E0CF9108950E9488
:1002800053010C9405020E94FE0158F00E94F701F0
:1002900040F029F45F3F29F00C94EE0151110C94C9
:1002A00039020C94F4010E94160268F39923B1F309
:1002B000552391F3951B550BBB27AA27621773078C
:1002C000840738F09F5F5F4F220F331F441FAA1F20
:1002D000A9F335D00E2E3AF0E0E832D091505040DC
:1002E000E695001CCAF72BD0FE2F29D0660F771F8A
:1002F000881FBB1F261737074807AB07B0E809F070
:10030000BB0B802DBF01FF2793585F4F3AF09E3FF4
:10031000510578F00C94EE010C9439025F3FE4F340
:10032000983ED4F3869577956795B795F7959F5F37
:10033000C9F7880F911D9695879597F90895E1E083
:10034000660F771F881FBB1F621773078407BA07E2
:1003500020F0621B730B840BBA0BEE1F88F7E0953D
:100360000895E89409C097FB3EF4909580957095A8
:1003700061957F4F8F4F9F4F9923A9F0F92F96E9F1
:10038000BB279395F695879577956795B795F11166
:10039000F8CFFAF4BB0F11F460FF1BC06F5F7F4F03
:1003A0008F4F9F4F16C0882311F096E911C0772315
:1003B00021F09EE8872F762F05C0662371F096E81E
:1003C000862F70E060E02AF09A95660F771F881FED
:1003D000DAF7880F9695879597F9089597F99F67AB
:1003E00080E870E060E008959FEF80EC08950024BD
:1003F0000A941616170618060906089500240A948A
:1004000012161306140605060895092E0394000C0F
:1004100011F4882352F0BB0F40F4BF2B11F460FF9E
:1004200004C06F5F7F4F8F4F9F4F089557FD9058C7
:10043000440F551F59F05F3F71F04795880F97FBA8
:10044000991F61F09F3F79F0879508951216130662
:100450001406551FF2CF4695F1DF08C01616170691
:100460001806991FF1CF86957105610508940895C6
:10047000E894BB2766277727CB0197F90895A0E07A
:10048000B0E0E5E4F2E00C942605AE014B5F5F4F6F
:10049000FA0161917191AF018091C6019091C701FC
:1004A0000E948502E2E00C9442050F931F93CF93C4
:1004B000DF93E091C601F091C701238121FF1BC0AA
:1004C0008C01D0E0C0E0F80181918F016091C601FC
:1004D0007091C701DB011896ED91FC911997882363
:1004E00031F00995892B79F3DFEFCFEFECCF8AE07C
:1004F0000995892B19F08FEF9FEF02C08D2F9C2F4C
:10050000DF91CF911F910F910895ABE0B0E0EBE840
:10051000F2E00C9416056C017B018A01FC01178244
:100520001682838181FFCCC1CE0101963C01F60188
:100530009381F70193FD859193FF81917F0188233A
:1005400009F4BAC1853239F493FD859193FF819105
:100550007F01853229F4B60190E00E947C04E7CF48
:10056000912C212C312CFFE1F315D8F08B3279F04E
:1005700038F4803279F08332A1F4232D20611DC03C
:100580008D3261F0803369F4232D216016C0832DF4
:100590008260382EE32DE4603E2E2AC0F32DF860F1
:1005A0001DC037FC2DC020ED280F2A3040F08E32C0
:1005B000B9F436FC81C1232D2064322E19C036FED9
:1005C00006C08AE0989E200D1124922E11C0EAE008
:1005D0002E9E200D1124222EF32DF0623F2E08C0F6
:1005E0008C3621F4832D8068382E02C0883641F481
:1005F000F70193FD859193FF81917F018111B3CF25
:10060000982F9F7D9554933028F40C5F1F4F9FE3E4
:1006100099830DC0833631F0833771F0833509F04B
:1006200059C021C0F801808189830E5F1F4F882443
:100630008394912C530113C02801F2E04F0E511CFA
:10064000F801A080B18036FE03C0692D70E002C0C1
:100650006FEF7FEFC5010E9471044C018201F32D01
:10066000FF773F2E16C0280122E0420E511CF801F0
:10067000A080B18036FE03C0692D70E002C06FEF2C
:100680007FEFC5010E9466044C01F32DF0683F2EF8
:10069000820133FC1BC0822D90E088169906B0F4CD
:1006A000B60180E290E00E947C042A94F4CFF50128
:1006B00037FC859137FE81915F01B60190E00E9481
:1006C0007C0421102A9421E0821A9108811491045B
:1006D00071F7E8C0843611F0893641F5F80137FE2C
:1006E00007C060817181828193810C5F1F4F08C0B8
:1006F00060817181072E000C880B990B0E5F1F4FD4
:10070000F32DFF763F2E97FF09C090958095709549
:1007100061957F4F8F4F9F4FF0683F2E2AE030E06A
:10072000A3010E94B804882E861845C0853731F48D
:10073000232D2F7EB22E2AE030E025C0932D997F05
:10074000B92E8F36C1F018F4883579F0B5C08037EE
:1007500019F0883721F0B0C0E92FE061BE2EB4FE59
:100760000DC0FB2DF460BF2E09C034FE0AC0292F36
:100770002660B22E06C028E030E005C020E130E05F
:1007800002C020E132E0F801B7FE07C0608171814C
:10079000828193810C5F1F4F06C06081718180E070
:1007A00090E00E5F1F4FA3010E94B804882E8618A8
:1007B000FB2DFF773F2E36FE0DC0232D2E7FA22E60
:1007C000891458F434FE0BC032FC09C0832D8E7E90
:1007D000A82E05C0B82CA32C03C0B82C01C0B92C7E
:1007E000A4FE0FC0FE01E80DF11D8081803321F4CD
:1007F0009A2D997EA92E09C0A2FE06C0B394B39487
:1008000004C08A2D867809F0B394A3FC11C0A0FE21
:1008100006C0B21488F4280C922C9B180EC0B21497
:1008200060F4B60180E290E00E947C04B394F7CFBC
:10083000B21418F42B1802C0982C212CA4FE10C05E
:10084000B60180E390E00E947C04A2FE17C0A1FCE8
:1008500003C088E790E002C088E590E0B6010CC0D4
:100860008A2D867859F0A1FE02C08BE201C080E299
:10087000A7FC8DE2B60190E00E947C04891438F454
:10088000B60180E390E00E947C049A94F7CF8A94AA
:10089000F301E80DF11D8081B60190E00E947C0417
:1008A0008110F5CF222009F442CEB60180E290E01B
:1008B0000E947C042A94F6CFF6018681978102C0BB
:1008C0008FEF9FEF2B96E2E10C943205FC0105902F
:1008D000615070400110D8F7809590958E0F9F1F42
:1008E0000895FC016150704001900110D8F7809587
:1008F00090958E0F9F1F08950F931F93CF93DF93B3
:10090000FB01238121FD03C08FEF9FEF2CC022FF4D
:1009100016C046815781248135814217530744F41C
:10092000A081B1819D012F5F3F4F318320838C9344
:10093000268137812F5F3F4F3783268314C08B0179
:10094000EC01FB010084F185E02D0995892BE1F68E
:10095000D80116968D919C911797019617969C93A6
:100960008E931697CE01DF91CF911F910F9108952D
:10097000FA01AA27283051F1203181F1E8946F93D0
:100980006E7F6E5F7F4F8F4F9F4FAF4FB1E03ED076
:10099000B4E03CD0670F781F891F9A1FA11D680F14
:1009A000791F8A1F911DA11D6A0F711D811D911D47
:1009B000A11D20D009F468943F912AE0269F1124BC
:1009C0003019305D3193DEF6CF010895462F477020
:1009D000405D4193B3E00FD0C9F7F6CF462F4F707B
:1009E000405D4A3318F0495D31FD4052419302D0D9
:1009F000A9F7EACFB4E0A69597958795779567957F
:100A0000BA95C9F700976105710508959B01AC017E
:100A10000A2E06945795479537952795BA95C9F7A5
:100A2000620F731F841F951FA01D08952F923F9280
:100A30004F925F926F927F928F929F92AF92BF92EE
:100A4000CF92DF92EF92FF920F931F93CF93DF939A
:100A5000CDB7DEB7CA1BDB0B0FB6F894DEBF0FBEF7
:100A6000CDBF09942A88398848885F846E847D8444
:100A70008C849B84AA84B984C884DF80EE80FD8046
:100A80000C811B81AA81B981CE0FD11D0FB6F894BC
:0E0A9000DEBF0FBECDBFED010895F894FFCF7D
:100A9E0000000002000000003101000000001B5B9E
:100AAE00324A0031363A32343A3336004D617220D2
:100ABE0032302032303230004D6574616C20446526
:100ACE00746563746F722053797374656D2076311B
:100ADE002E300A454C454320323931202D2050729C
:100AEE006F6A65637420320A417574686F723A20BA
:100AFE005A686920436875656E2054616E202836E9
:100B0E0035343038333631290A5465726D3A203215
:100B1E0030313957320A436F6D70696C65643A2013
:100B2E0025732C2025730A0A00496E697469616C5D
:100B3E00697A6174696F6E20636F6D706C65746530
:100B4E0021001B5B304B000D20463D202566487A68
:020B5E00000095
:00000001FF
