:100000000C9434000C9451000C9451000C94510049
:100010000C9451000C9451000C9451000C9451001C
:100020000C9451000C9451000C946D000C945100F0
:100030000C9451000C9451000C9451000C945100FC
:100040000C9451000C9451000C9451000C945100EC
:100050000C9451000C9451000C9451000C945100DC
:100060000C9451000C94510011241FBECFEFD8E026
:10007000DEBFCDBF12E0A0E0B1E0E8EEF8E002C0E4
:1000800005900D92AA3AB107D9F722E0AAEAB2E0A8
:1000900001C01D92A23BB207E1F70E949D000C94A3
:1000A00072040C9400002091840030918500E4E8F3
:1000B000F0E080819181821B930B80389E43C8F3CE
:1000C0000895CF93DF93009729F0EC010E9453002D
:1000D0002197E1F7DF91CF9108951F920F920FB60C
:1000E0000F9211242F933F938F939F93B59BFECF35
:1000F00080918600909187009093AB028093AA0232
:1001000080E286BBB59BFECF8091860090918700F0
:100110002091AA023091AB02821B930B9093AB0209
:100120008093AA0280E286BB9F918F913F912F918D
:100130000F900FBE0F901F90189584EF91E00E94D2
:1001400061000E942D0187B187B988B1896288B9A1
:100150008AB18C698AB98EE091E09F938F930E9457
:10016000640183E191E09F938F938CE191E09F93F1
:100170008F9388E291E09F938F930E946401E0E85F
:10018000F0E080811082E1E8F0E08081816C808382
:10019000B59889E991E00E947A010E945C012DB72F
:1001A0003EB7285F3F4F0FB6F8943EBF0FBE2DBF3E
:1001B000813309F0FFCF8091AA029091AB025C9A43
:1001C00085E092E00E947A010E945C01813309F08F
:1001D000FFCF8091AA029091AB028BB188618BB95D
:1001E000E1E8F0E080818164808382E892E00E940F
:1001F0007A018BB1877E8BB95C9A88EC90E00E9483
:1002000061005C985B9A88EC90E00E9461005B98CA
:100210005C9A88EC90E00E9461005C985F9A88ECA0
:1002200090E00E9461005F988BE992E09F938F932A
:100230000E9464010F900F90C0EAD2E01F921F92BB
:100240001F921F92DF93CF930E9464010F900F9033
:100250000F900F900F900F90F1CF80E091E090936E
:10026000AF028093AE02519A50981092C50083E37A
:100270008093C400E1ECF0E080818860808380811D
:100280008061808386E08093C2000895E0ECF0E016
:10029000908195FFFDCF8093C6000895CF93C82F1E
:1002A0008A3019F48DE00E9446018C2F0E9446018D
:1002B00080E090E0CF910895E0ECF0E08081882329
:1002C000ECF78091C6000895A0E0B0E0EAE6F1E026
:1002D0000C944B04AE014B5F5F4FFA016191719139
:1002E000AF018091AE029091AF020E94AA01E2E0BC
:1002F0000C9467040F931F93CF93DF93E091AE02AA
:10030000F091AF02238121FF1BC08C01D0E0C0E03F
:10031000F80181918F016091AE027091AF02DB0113
:100320001896ED91FC911997882331F00995892B46
:1003300079F3DFEFCFEFECCF8AE00995892B19F045
:100340008FEF9FEF02C08D2F9C2FDF91CF911F91D8
:100350000F910895ABE0B0E0E0EBF1E00C943B04CA
:100360006C017B018A01FC0117821682838181FF67
:10037000CCC1CE0101963C01F6019381F70193FDBA
:10038000859193FF81917F01882309F4BAC1853259
:1003900039F493FD859193FF81917F01853229F492
:1003A000B60190E00E94A103E7CF912C212C312CC3
:1003B000FFE1F315D8F08B3279F038F4803279F020
:1003C0008332A1F4232D20611DC08D3261F0803372
:1003D00069F4232D216016C0832D8260382EE32D11
:1003E000E4603E2E2AC0F32DF8601DC037FC2DC0FE
:1003F00020ED280F2A3040F08E32B9F436FC81C14E
:10040000232D2064322E19C036FE06C08AE0989E45
:10041000200D1124922E11C0EAE02E9E200D1124F1
:10042000222EF32DF0623F2E08C08C3621F4832D4E
:100430008068382E02C0883641F4F70193FD85911B
:1004400093FF81917F018111B3CF982F9F7D9554A8
:10045000933028F40C5F1F4F9FE399830DC08336C0
:1004600031F0833771F0833509F059C021C0F801AC
:10047000808189830E5F1F4F88248394912C5301C0
:1004800013C02801F2E04F0E511CF801A080B1808A
:1004900036FE03C0692D70E002C06FEF7FEFC5012B
:1004A0000E9496034C018201F32DFF773F2E16C068
:1004B000280122E0420E511CF801A080B18036FED6
:1004C00003C0692D70E002C06FEF7FEFC5010E948D
:1004D0008B034C01F32DF0683F2E820133FC1BC0CF
:1004E000822D90E088169906B0F4B60180E290E083
:1004F0000E94A1032A94F4CFF50137FC859137FEC1
:1005000081915F01B60190E00E94A10321102A941D
:1005100021E0821A91088114910471F7E8C08436B1
:1005200011F0893641F5F80137FE07C0608171810D
:10053000828193810C5F1F4F08C060817181072EFB
:10054000000C880B990B0E5F1F4FF32DFF763F2E8B
:1005500097FF09C090958095709561957F4F8F4F5B
:100560009F4FF0683F2E2AE030E0A3010E94DD0398
:10057000882E861845C0853731F4232D2F7EB22E64
:100580002AE030E025C0932D997FB92E8F36C1F037
:1005900018F4883579F0B5C0803719F0883721F024
:1005A000B0C0E92FE061BE2EB4FE0DC0FB2DF4609B
:1005B000BF2E09C034FE0AC0292F2660B22E06C005
:1005C00028E030E005C020E130E002C020E132E068
:1005D000F801B7FE07C060817181828193810C5F51
:1005E0001F4F06C06081718180E090E00E5F1F4F59
:1005F000A3010E94DD03882E8618FB2DFF773F2E76
:1006000036FE0DC0232D2E7FA22E891458F434FE01
:100610000BC032FC09C0832D8E7EA82E05C0B82CDD
:10062000A32C03C0B82C01C0B92CA4FE0FC0FE013E
:10063000E80DF11D8081803321F49A2D997EA92E39
:1006400009C0A2FE06C0B394B39404C08A2D867874
:1006500009F0B394A3FC11C0A0FE06C0B21488F444
:10066000280C922C9B180EC0B21460F4B60180E2E4
:1006700090E00E94A103B394F7CFB21418F42B18A2
:1006800002C0982C212CA4FE10C0B60180E390E09B
:100690000E94A103A2FE17C0A1FC03C088E790E05E
:1006A00002C088E590E0B6010CC08A2D867859F02A
:1006B000A1FE02C08BE201C080E2A7FC8DE2B60180
:1006C00090E00E94A103891438F4B60180E390E021
:1006D0000E94A1039A94F7CF8A94F301E80DF11DCB
:1006E0008081B60190E00E94A1038110F5CF222005
:1006F00009F442CEB60180E290E00E94A1032A9460
:10070000F6CFF6018681978102C08FEF9FEF2B967F
:10071000E2E10C945704FC01059061507040011017
:10072000D8F7809590958E0F9F1F0895FC0161501A
:10073000704001900110D8F7809590958E0F9F1F03
:1007400008950F931F93CF93DF93FB01238121FD26
:1007500003C08FEF9FEF2CC022FF16C04681578148
:10076000248135814217530744F4A081B1819D0152
:100770002F5F3F4F318320838C93268137812F5FFA
:100780003F4F3783268314C08B01EC01FB010084AB
:10079000F185E02D0995892BE1F6D80116968D910A
:1007A0009C911797019617969C938E931697CE015E
:1007B000DF91CF911F910F910895FA01AA27283058
:1007C00051F1203181F1E8946F936E7F6E5F7F4F1E
:1007D0008F4F9F4FAF4FB1E03ED0B4E03CD0670F9A
:1007E000781F891F9A1FA11D680F791F8A1F911DED
:1007F000A11D6A0F711D811D911DA11D20D009F43D
:1008000068943F912AE0269F11243019305D31937E
:10081000DEF6CF010895462F4770405D4193B3E067
:100820000FD0C9F7F6CF462F4F70405D4A3318F00E
:10083000495D31FD4052419302D0A9F7EACFB4E0BF
:10084000A6959795879577956795BA95C9F7009777
:100850006105710508959B01AC010A2E0694579518
:10086000479537952795BA95C9F7620F731F841F6F
:10087000951FA01D08952F923F924F925F926F9205
:100880007F928F929F92AF92BF92CF92DF92EF9220
:10089000FF920F931F93CF93DF93CDB7DEB7CA1BA1
:1008A000DB0B0FB6F894DEBF0FBECDBF09942A88CC
:1008B000398848885F846E847D848C849B84AA8474
:1008C000B984C884DF80EE80FD800C811B81AA8101
:1008D000B981CE0FD11D0FB6F894DEBF0FBECDBFCC
:0808E000ED010895F894FFCF2B
:1008E80000000002000000004E01000000001B5B39
:1008F800324A0030303A33303A3038004170722092
:1009080020362032303230004D6574616C204465E9
:10091800746563746F722053797374656D207631D2
:100928002E300A454C454320323931202D20507253
:100938006F6A65637420320A417574686F723A2071
:100948005A686920436875656E2054616E202836A0
:1009580035343038333631290A5465726D3A2032CD
:1009680030313957320A436F6D70696C65643A20CB
:1009780025732C2025730A0A002A2A2A2A2A2A5390
:10098800454E534F522043414C4942524154494FDE
:100998004E2A2A2A2A2A2A0A506C6561736520651C
:1009A8006E737572652073656E736F72206973203C
:1009B800636C656172206F6620616C6C20666F7273
:1009C8006569676E206D6574616C2E0A5072657377
:1009D800732027312720746F20636F6E74696E75DA
:1009E800652E2E2E000A0D506C6561736520706CA3
:1009F80061636520736F6D65206D6574616C20643B
:100A080069726563746C79206F6E207468652074F0
:100A18006F70206F66207468652073656E736F72DF
:100A28000A50726573732027312720746F20636F13
:100A38006E74696E75652E2E2E0A2A2A2A2A2A2A8B
:100A480053454E534F522043414C49425241544919
:100A58004F4E20434F4D504C4554452A2A2A2A2AA6
:100A68002A00496E697469616C697A6174696F6E8C
:100A780020636F6D706C65746521001B5B304B00E3
:0A0A88000D20463D202566487A0047
:00000001FF
